:020000040800F2
:100000006805002085360008E9040008EB040008B4
:10001000EF040008F3040008F704000800000000E3
:10002000000000000000000000000000FD040008C7
:10003000FB04000800000000FF04000801050008A0
:100040009F3600089F3600089F3600080B05000801
:100050009F3600089F3600089F3600089F3600082C
:100060009F3600089F3600089F3600089F3600081C
:100070009F3600089F3600089F3600089F3600080C
:100080009F3600089F3600089F3600089F360008FC
:100090009F3600089F3600089F3600089F360008EC
:1000A0009F3600089F3600089F3600089F360008DC
:1000B0009F360008011C00089F3600089F36000884
:1000C0009F3600089F3600089F3600089F360008BC
:1000D0009F3600089F3600089F3600089F360008AC
:1000E0009F3600089F3600089F3600089F3600089C
:1000F0009F3600089F3600089F3600089F3600088C
:100100009F360008030500089F3600089F36000848
:100110009F3600089F3600089F3600089F3600086B
:100120009F3600089F3600089F3600089F3600085B
:10013000DFF80CD006F074FA004800473F020008D0
:10014000680500204FF0E021096941F001014FF0FE
:10015000E022116119E06FF07F414FF0E022516120
:1001600000219161B24949684FF47A72B1FBF2F112
:100170004FF08072B2FBF1F1401A00BF4FF0E02166
:10018000096901F480310029F8D0A94949684FF480
:100190007A72B1FBF2F14FF08072B2FBF1F1814261
:1001A000D9D3A34949684FF47A72B1FBF2F14143C4
:1001B0004FF0E02251610021916100BF4FF0E0213A
:1001C000096901F480310029F8D04FF0E021096974
:1001D00021F001014FF0E0221161704710B503F0EA
:1001E0007FFC4FF4803003F09BFC03F0D8FC044606
:1001F000012C23D1102004F06BFD022004F054FDEB
:10020000002003F012FD002003F021FD002003F088
:1002100015FD2105081103F0EBFC012003F0F4FCAF
:1002200000BF392003F09FFC0028FAD0022003F021
:10023000EEFC00BF03F0F4FC0828FBD110BDFFF773
:10024000CDFF00F067FC01F06DFC01F061FA01F0F8
:10025000D1FC01F095FB764803F043FD042003F048
:1002600072FA00F05BFA01F019F900F02EFD00F0CF
:1002700085FD01F05FF804461CB96EA006F002FA95
:1002800002E074A006F0FEF900F09DFB02F0F7FC1E
:1002900018B977A006F0F6F902E079A006F0F2F9B5
:1002A0007EA006F0EFF902F039FD7E4908704FF4A8
:1002B000FA70FFF747FF00217B4804F017FA00218E
:1002C000794804F01FFAB1E07848007800282AD075
:1002D00002F024FD7349097888421DD0012172483B
:1002E00004F004FA0121704804F00CFA012070496E
:1002F000087000206F49086002F010FD60B102F044
:10030000BEFC18B95AA006F0BDF902E05CA006F0E8
:10031000B9F962A006F0B6F902F000FD6149087073
:1003200000206249087000F040FB01F0F9F901F08B
:10033000FFFB61480078002866D0604801F067F84C
:1003400000205F49087033E05E485D49097830F964
:1003500011005A495A4A127831F91210884211DABA
:1003600056485749097830F811105648544A1278BF
:1003700030F81200081A00B25349514A127821F895
:10038000120010E04F484E49097830F811004B49EF
:100390004B4A127831F81210401A01B24A48484AC2
:1003A000127820F8121046480078401C4449087022
:1003B000434800780328C7DB434BB3F904305A00A5
:1003C000414BB3F9023059003F4BB3F900305800AC
:1003D00001F046FB00203A4908700EE037483849E2
:1003E000097830F811003749354A127821F812009F
:1003F00033480078401C324908703148007803289F
:10040000ECDB00202C4908703048007870B12B4894
:10041000B0F90430B0F90020B0F902102CA006F0B9
:1004200031F900F058FC0020284908704CE7000022
:100430007C0000200D0A4C495333444820496E6922
:1004400074206973207375636365656421200D0AE8
:10045000000000000D0A4C495333444820496E699E
:1004600074206973206661696C656421200D0A003F
:100470000D0AB7A2CFD65344BFA8210D0A00000031
:100480000D0AC3BBD3D0B7A2CFD620534420BFA8F8
:10049000C9E8B1B821200D0A000000000D0A0D0ABC
:1004A000000000001C000020002C01401D00002066
:1004B0001E00002018000020000000200200002084
:1004C00014000020080000200E000020150000206D
:1004D000583D25642C20593D25642C205A3D256427
:1004E0000D0A0D0A00000000704700BFFEE700BFC4
:1004F000FEE700BFFEE700BFFEE7704770477047AA
:10050000704710B503F07AF810BD10B5012005F062
:10051000C5FA50B1012005F0D1FA01200349086065
:1005200005F08EFA01200249087010BD3400002049
:10053000150000200CB50020019000906C48006868
:1005400040F480306A49086000BF6948006800F4E0
:10055000003000900198401C0190009818B9019853
:10056000B0F5A06FF1D16248006800F4003010B11E
:100570000120009001E0002000900098012843D164
:100580005C48006840F010005A490860084600685E
:1005900020F0030008600846006840F00200086090
:1005A00053484068524948600846406848600846D9
:1005B000406840F4806048600846406820F47C1041
:1005C00048600846406840F4E81048600846006803
:1005D00040F08070086000BF4548006800F000707F
:1005E0000028F9D04248406820F0030040494860A4
:1005F0000846406840F00200486000BF3C48406840
:1006000000F00C000828F9D10CBD10B5FFF792FFDF
:1006100010BD10B53648006840F00100344908604C
:100620000846406834490840314948600846006837
:10063000324908402E4908600846006820F48020AE
:1006400008600846406820F4FE0048604FF41F0030
:100650008860FFF7DAFF4FF000602949086010BD9D
:1006600010B5002100200022214B5B6803F00C0133
:1006700021B1042906D0082928D107E0214B224CBA
:10068000236027E0214B204C236023E0184B5B685C
:1006900003F47010164B5B6803F48032022303EB03
:1006A000904022B91A4B4343174C23600DE0104B86
:1006B0005B6803F4003323B1164B4343124C2360B1
:1006C00003E0124B4343104C236003E00D4B0E4CF0
:1006D000236000BF00BF064B5B68C3F303130E4CDF
:1006E000E15C094B1B68CB40074C236010BD000048
:1006F00000100240002002400000FFF8FFFFF6FE5D
:1007000008ED00E000127A0020000020001BB70076
:1007100000093D00808D5B002400002000B585B0FD
:10072000012144F2010003F049FB4FF48060ADF871
:10073000100004208DF8130004A93F4803F082F84C
:100740004FF40070ADF8100003208DF8120018204F
:100750008DF8130004A9384803F074F84FF4E13021
:1007600000900020ADF80400ADF80600ADF80800D8
:10077000ADF80C000C20ADF80A0069462F4805F0D2
:10078000D4FA01212D4805F05CFB05B000BD70B521
:1007900004460D46E1B2294805F0C0FB00BF4021E8
:1007A000264805F029FC0028F9D0204670BD10B578
:1007B000044600BF2021214805F01EFC0028F9D086
:1007C0001E4805F0AFFB10BD7CB505460024002097
:1007D000009001901BE000BF2021184805F00CFCA0
:1007E0000028F9D0154805F09DFB2146641C4DF802
:1007F0002100601E5DF82000302804D3601E5DF8E3
:100800002000392803D90EA005F03CFF641E022CFD
:10081000E1D3019830380099303901EB810100EBC8
:100820004104AC4205D9294610A005F02BFFFF205A
:100830007CBDE0B2FCE70000000801400038014048
:100840000A0D506C6561736520656E746572207663
:10085000616C6964206E756D626572206265747783
:1008600065656E203020616E642039000A0D506C81
:100870006561736520656E7465722076616C69646C
:10088000206E756D626572206265747765656E2095
:100890003020616E642025640000000008B54FF42C
:1008A000C06002F001FF03208DF8000001208DF8E8
:1008B000010000208DF8020001208DF80300684639
:1008C00002F0F7FE08BD10B501214FF0C05003F053
:1008D00082FA012004F0FDFF05F0E8FB012003F09F
:1008E000DAF900BF412003F03EF90028FAD04FF4B6
:1008F000807003F0ECF9012003F0EFF905F0A9F89E
:1009000005F09EF80121084605F03EF805F098F83C
:1009100047F6FF7005F06EF805F092F810BD10B5BF
:100920000023002100224FF461605843C1EB011401
:1009300000EB8400104410BD10B505F081F8FFF7FE
:10094000EEFF044605F049F805F07AF810BD2DE9F0
:10095000F041044600250026002705F035F83C4903
:10096000884204D1002005F038F805F069F84FF40A
:100970006160B4FBF0F5B4FBF0F100FB11403C21E9
:10098000B0FBF1F64FF46160B4FBF0F100FB1140F5
:100990003C21B0FBF1F201FB12073B4632462946EF
:1009A0002CA005F06FFEBDE8F08110B5324800685C
:1009B000012807D105F008F80446FFF7C8FF00201A
:1009C0002D49086010BD10B5FFF768FF042005F041
:1009D000A2FB4AF2A55188420FD028A005F052FE92
:1009E000FFF771FF2DA005F04DFEFFF7A5FF4AF2BE
:1009F000A551042005F083FB19E07B2003F0B3F838
:100A000018B12CA005F03EFE06E07A2003F0ABF80A
:100A100010B130A005F036FE36A005F033FE05F02B
:100A200018F80121084604F0AFFF05F009F801218C
:100A30004FF0C05003F0CFF9012004F04AFF00202E
:100A400005F03FFB802005F044FB03F0F5F910BDF5
:100A50007F51010043757272656E742054696D6533
:100A60003A2025302E32643A25302E32643A253031
:100A70002E32640D0A000000340000200D0A0A2006
:100A8000525443206E6F742079657420636F6E66D4
:100A90006967757265642E2E2E2E00000D0A205295
:100AA000544320636F6E666967757265642E2E2EDF
:100AB0002E0000000D0A0A20506F776572204F6EDD
:100AC000205265736574206F636375727265642E5E
:100AD0002E2E2E000D0A0A2045787465726E616C08
:100AE000205265736574206F636375727265642E3E
:100AF0002E2E2E000D0A204E6F206E656564207428
:100B00006F20636F6E666967757265205254432E5D
:100B10002E2E2E0030B589B040F20264002501214E
:100B200040F6050003F04AF94FF48070ADF820005C
:100B300018208DF8230003208DF8220008A92248F0
:100B400002F080FE214800682149B0FBF1F0401E10
:100B500085B26000ADF81800ADF814500020ADF873
:100B60001A00ADF816008DF81C0005A9194803F00D
:100B700061FA6020ADF804000020ADF80C00ADF87B
:100B80000E000120ADF80600ADF808000002ADF837
:100B900010000020ADF81200ADF80A4008210D4801
:100BA00003F0D4FE01A90B4803F081FA01210948A2
:100BB00003F09CFE0121074803F098FD0121054840
:100BC00003F0A0FD09B030BD000801402000002066
:100BD00000127A00002C014000B587B0012140F2DC
:100BE000112003F0EBF80C20ADF8180000208DF870
:100BF0001B0006A94F4802F025FE002001900120AD
:100C00008DF808008DF809004FF460200390002053
:100C1000049002208DF8140001A9474805F0CFFA8E
:100C2000042301220C21444805F061FB0423022225
:100C30000D21414805F05BFB01213F4805F0EBFA2F
:100C400001213D4805F0F2FA3B4805F006FB00BFE4
:100C5000394805F007FB0028FAD1374805F00CFBAE
:100C600000BF354805F00DFB0028FAD107B000BDE4
:100C700000B58BB00121084603F093F82F4804F02B
:100C8000F1FA00200A9020200890000209904011FB
:100C9000069080000790802005900020049002902C
:100CA0000820039024484C30009025480190694664
:100CB000224804F079FB0121204804F0A0FB012127
:100CC0001D4805F0E8FA0BB000BD10B5FFF784FF32
:100CD000FFF7CEFF10BD38B50025002418E01849F5
:100CE00031F814200B46A11C33F811100A44211DC1
:100CF00033F811100A44A11D33F811105018C11710
:100D000000EB9171C1F38F012DF81410601CC4B277
:100D1000022CE4DBBDF800000512294609A005F00D
:100D2000B1FCBDF80200051229460DA005F0AAFC91
:100D300038BD0000001001400024014008000240BE
:100D4000900000205468652041445F53494731209A
:100D500076616C75652069733A2025640D0A000080
:100D60005468652041445F534947322076616C7571
:100D7000652069733A2025640D0A000008B5012139
:100D8000082003F01BF8C020ADF8000014208DF8F7
:100D9000030003208DF802006946D94802F052FD95
:100DA00008BD022001E0411EC8B20028FBD17047F7
:100DB00000B58020D2491031086040200860FFF75C
:100DC000F0FF8020CE4914310860FFF7EAFF402091
:100DD000CB4914310860FFF7E4FF012000BD00B5E6
:100DE0004020C74914310860FFF7DBFF8020C44969
:100DF00014310860FFF7D5FF4020C1491031086069
:100E0000FFF7CFFF8020BE4910310860FFF7C9FF10
:100E100000BD00B54020BA4914310860FFF7C1FF9A
:100E20008020B74914310860FFF7BBFF4020B44968
:100E300010310860FFF7B5FF4020B1491431086058
:100E4000FFF7AFFF00BD00B54020AD491431086089
:100E5000FFF7A7FF8020AA4910310860FFF7A1FF24
:100E60004020A74910310860FFF79BFF4020A449AC
:100E700014310860FFF795FF00BD00B54020A04980
:100E800014310860FFF78DFF80209D491031086004
:100E9000FFF787FF40209A4910310860FFF781FF74
:100EA000402097491431086095480830006800F0E8
:100EB000800008B1002000BD0120FCE700B5082338
:100EC000002280208E491031086015E05006020E85
:100ED00040208B4914310860FFF763FF40208849A8
:100EE00010310860FFF75DFF85480830006800F0AA
:100EF000800008B142F001021800A3F10101CBB259
:100F0000E4D140207E4914310860104600BD00B590
:100F1000024608231BE04020794914310860FFF79E
:100F200040FF02F0800020B1802075491031086038
:100F300003E080207249143108605006020EFFF76A
:100F400030FF40206E4910310860FFF72AFF18007B
:100F5000A3F10101CBB2DED1402069491431086010
:100F600000BD70B505460C46FFF722FF2046FFF78F
:100F7000CEFFFFF782FF2846FFF7C9FFFFF77DFF8F
:100F8000FFF716FF611CC8B2FFF7C1FFFFF775FF3F
:100F9000FFF794FF0646FFF756FFFFF720FF3046A6
:100FA00070BD70B506460C461546FFF701FF284692
:100FB000FFF7ADFFFFF761FF2046FFF7A8FFFFF740
:100FC0005CFF3046FFF7A3FFFFF757FFFFF7E9FE8F
:100FD000FFF705FFFFF7E5FE70BD2DE9F04105467F
:100FE0000F4616461C460121464804F020FBFFF739
:100FF000D8FE00223946434804F06FFB00BF424947
:10100000404804F0F5FB0028F9D001213D4804F0E8
:10101000EAFA31463B4804F05AFB00BF3A49891CC2
:10102000384804F0E5FB0028F8D00121354804F0E9
:10103000FEFA00BF3549334804F0DAFB0028F9D046
:10104000012239462F4804F048FB00BF2F49491CB4
:101050002C4804F0CDFB0028F8D016E0012C07D175
:101060000021284804F0FBFA0121264804F0EBFA9D
:1010700026493F31234804F0BBFB30B1214804F03E
:1010800028FB28706D1C601E84B2002CE6D1012163
:101090001C4804F0E4FABDE8F08170B504460E4641
:1010A00015460121174804F0C2FAFFF77AFE002224
:1010B0003146144804F011FB00BF1349114804F0F5
:1010C00097FB0028F9D029460E4804F000FB00BF2A
:1010D0000D49891C0B4804F08BFB0028F8D02178BF
:1010E000084804F0F4FA00BF0749891C054804F0D9
:1010F0007FFB0028F8D00121024804F0A4FA70BD5B
:10110000000C01400058004082000700010003006D
:1011100070B505460C4632212846FFF722FF2070A5
:10112000012070BD70B504460D4632222146284686
:10113000FFF737FF012070BD38B50446694620200F
:10114000FFF7E6FF08B9002038BD9DF8000000F069
:101150000F0000909DF8000040EA0410C0B200901B
:101160009DF800102020FFF7DDFF08B90020EBE715
:101170000120E9E71CB5044601A92020FFF7C8FFBC
:1011800008B900201CBD69462320FFF7C1FF08B93C
:101190000020F7E79DF8040000F0F00038B9BE48E1
:1011A000007800F0F0009DF804100843019024B18D
:1011B000012C1FD0022C30D109E09DF80400B64963
:1011C00008709DF8040000F00F00019027E09DF8E2
:1011D000040000F0F70001909DF8040001909DF8D4
:1011E000000000F0F70000909DF8000040F00800BB
:1011F000009014E09DF8040000F0F70001909DF8C5
:10120000040040F0080001909DF8000000F0F70095
:1012100000909DF80000009001E00020B2E700BFC0
:101220009DF804102020FFF77DFF08B90020A9E7F2
:101230009DF800102320FFF775FF08B90020A1E7F3
:1012400001209FE738B5044669462020FFF760FF7C
:1012500008B9002038BD9DF8000000F0F8000090AB
:1012600004F007009DF80010084300909DF800105E
:101270002020FFF757FF08B90020EBE70120E9E73E
:1012800038B5044669462320FFF742FF08B900201D
:1012900038BD9DF8000000F0CF0000909DF80000E0
:1012A00040EA0410C0B200909DF800102320FFF720
:1012B00039FF08B90020EBE70120E9E738B504461B
:1012C00069462320FFF724FF08B9002038BD9DF8A8
:1012D000000000F07F0000909DF8000040EAC4107C
:1012E000C0B200909DF800102320FFF71BFF08B943
:1012F0000020EBE70120E9E738B5044669462320E2
:10130000FFF706FF08B9002038BD9DF8000000F087
:10131000BF0000909DF8000040EA8410C0B2009029
:101320009DF800102320FFF7FDFE08B90020EBE731
:101330000120E9E710B53220322807D064280AD00E
:10134000C8280DD0B0F5C87F14D10EE00420FFF7F7
:10135000F3FE044610E00520FFF7EEFE04460BE026
:101360000620FFF7E9FE044606E00720FFF7E4FE4B
:10137000044601E00C2010BD00BF0CB90320FAE7C1
:101380000220FFF7F7FE04460CB90320F3E74FF401
:10139000FA60B0F5FA6F09D0B0F57A6F0BD0B0F5FE
:1013A000FA5F0DD0B0F57A5F14D10EE00020FFF7A0
:1013B00067FF044610E00120FFF762FF04460BE0E0
:1013C0000220FFF75DFF044606E00320FFF758FF09
:1013D000044601E00B20CEE700BF0CB90320CAE7AA
:1013E0000120FFF76BFF04460CB90320C3E7002080
:1013F000FFF782FF04460CB90320BCE70720FFF784
:1014000021FF04460CB90320B5E70020B3E710B56F
:10141000044632212B20FFF7A4FD000200B22080F9
:1014200032212A20FFF79DFDB4F9001008432080E7
:10143000B4F900000011208032212920FFF791FD2E
:10144000000200B2608032212820FFF78AFDB4F943
:101450000210084360806088404200B26080B4F9A6
:1014600002000011608032212D20FFF77AFD00027A
:1014700000B2A08032212C20FFF773FDB4F90410D4
:101480000843A080B4F904000011A080A088404265
:1014900000B2A08010BD00003800002030B589B037
:1014A0004FF47A74002501210D2002F087FC4FF4DF
:1014B0004070ADF8200018208DF8230003208DF82F
:1014C000220008A9224802F0BDF9224800682249FA
:1014D000B0FBF1F0401E85B26000ADF81800ADF829
:1014E00014500020ADF81A00ADF816008DF81C005D
:1014F00005A91A4802F09EFD6020ADF80400002006
:10150000ADF80C00ADF80E000120ADF80600ADF806
:1015100008000002ADF810000020ADF81200ADF890
:101520000A4008210D4803F011FA01A90B4802F006
:10153000BEFD0121094803F0D9F90121074803F054
:10154000D5F80121054803F0DDF809B030BD0000F1
:10155000000C01402000002000127A00000800402A
:10156000F248007808B9012000E00020EF49087037
:10157000EF48007808B9012000E00020EC4908702D
:10158000EC48007808B9012000E00020E949087023
:10159000E948007808B9012000E00020E649087019
:1015A000E648007808B9012000E00020E34908700F
:1015B000E348007808B9012000E00020E049087005
:1015C000E048007808B9012000E00020DD490870FB
:1015D000DD48007808B9012000E00020DA490870F1
:1015E000DA48007808B9012000E00020D7490870E7
:1015F000D748007808B9012000E00020D4490870DD
:10160000D448007808B9012000E00020D1490870D2
:10161000D148007808B9012000E00020CE490870C8
:10162000CE48007808B9012000E00020CB490870BE
:10163000CB48007808B9012000E00020C8490870B4
:10164000C848007808B9012000E00020C5490870AA
:10165000C548007808B9012000E00020C2490870A0
:10166000C248007808B9012000E00020BF49087096
:10167000BF48007808B9012000E00020BC4908708C
:10168000704708B50121042002F098FB41F6F000F4
:10169000ADF8000010208DF8030001208DF8020045
:1016A0006946B44802F0CEF80121042002F086FB1E
:1016B00008BD08B50121082002F080FB4FF6C340A9
:1016C000ADF8000010208DF8030001208DF8020015
:1016D0006946A94802F0B6F80121082002F06EFB25
:1016E00008BD08B50121102002F068FB0320ADF809
:1016F000000010208DF8030001208DF802006946DB
:101700009E4802F09FF80121102002F057FB08BD0F
:1017100010B5FFF7B6FFFFF7CCFFFFF7E2FF10BDF4
:1017200010B58248007828B101221021914802F0BA
:101730003AF904E0002210218E4802F034F97C4886
:10174000007828B1012220218A4802F02CF904E017
:1017500000222021874802F026F97648007828B137
:1017600001224021834802F01EF904E000224021BA
:10177000804802F018F97048007828B101228021D1
:101780007C4802F010F904E000228021794802F040
:101790000AF96A48007828B10122D102754802F09E
:1017A00002F905E000224FF40061724802F0FBF8F4
:1017B0006348007828B1012211036E4802F0F3F863
:1017C00005E000224FF480516A4802F0ECF85D48D1
:1017D000007828B101221146674802F0E4F804E0DD
:1017E00000220121644802F0DEF85748007828B151
:1017F00001220221604802F0D6F804E00022022112
:101800005D4802F0D0F85148007828B1012240210B
:10181000594802F0C8F804E000224021564802F07E
:10182000C2F84B48007828B101228021524802F0CA
:10183000BAF804E0002280214F4802F0B4F845488D
:10184000007828B1012291024B4802F0ACF805E083
:1018500000224FF48061484802F0A5F83E48007825
:1018600028B10122D102444802F09DF805E000228F
:101870004FF40061404802F096F83848007828B1EB
:10188000012211033C4802F08EF805E000224FF4DB
:101890008051394802F087F83148007828B1012298
:1018A0005103354802F07FF805E000224FF4005163
:1018B000314802F078F82B48007828B101229103D2
:1018C0002D4802F070F805E000224FF480412A48CC
:1018D00002F069F82448007828B10122D103264893
:1018E00002F061F805E000224FF40041224802F0C6
:1018F0005AF81E48007828B1012211461F4802F00C
:1019000052F804E0002201211C4802F04CF818486B
:10191000007828B101220221184802F044F804E0BE
:1019200000220221154802F03EF810BD39000020C7
:101930003A0000203B0000203C0000203D00002039
:101940003E0000203F000020400000204100002019
:1019500042000020430000204400002045000020F9
:1019600046000020470000204800002049000020D9
:101970004A00002000080140000C01400010014016
:1019800000B589B00121084602F025FA01210520A1
:1019900002F014FA0720ADF8040018208DF80700B3
:1019A00003208DF8060001A9384801F04BFF4FF4E1
:1019B0007A70ADF81C004720ADF818000020ADF893
:1019C0001A00ADF81E008DF8200006A94FF08040E7
:1019D00002F030FB7020ADF808000120ADF80A00DD
:1019E0000420ADF80C000020ADF810000220ADF886
:1019F0001200C001ADF814000020ADF81600ADF8DB
:101A00000E0002A94FF0804002F051FB0821C806E9
:101A100002F09CFF0020ADF80E0002A94FF08040BC
:101A200002F087FB0821C80602F099FF0020ADF8FC
:101A30000E0002A94FF0804002F0C8FB0821C80642
:101A400002F09AFF0121880702F050FF0121880768
:101A500002F04CFE0121880702F054FE09B000BDDF
:101A600010B5B0F57A7F01D34FF47A70B1F57A7F73
:101A700001D34FF47A71B2F57A7F01D34FF47A72C1
:101A80004FF08044A1862087A28710BD0008014046
:101A900008B50121052002F091F90820ADF80000F9
:101AA00010208DF8030001208DF8020069463148AE
:101AB00001F0C8FE0121042002F080F908212D4820
:101AC00001F06DFF08BD10B5044624B10821294876
:101AD00001F067FF03E00821264801F060FF10BD18
:101AE00008B50121092002F069F90121224801F01D
:101AF0007AFF1820ADF8000004208DF80300694635
:101B00001E4801F09FFE0121112002F057F93020FC
:101B1000ADF8000004208DF803006946184801F074
:101B200091FE08BD10B5FFF7B3FFFFF7D9FF10BD59
:101B300010B52021124801F018FF012811D0102102
:101B40000F4801F012FF01280BD008210B4801F0CB
:101B50000CFF012805D01021084801F006FF0128DC
:101B600003D10120FFF7AFFF02E00020FFF7ABFF3A
:101B700010BD00000008014000023000000C0140D0
:101B80000010014008B54FF4E06001F08DFD1D200C
:101B90008DF8000000208DF8010002208DF8020071
:101BA00001208DF80300684601F083FD08BD0EB5E5
:101BB0000121022002F00FF94FF47A70ADF8040011
:101BC0004720ADF800000020ADF80600ADF8020097
:101BD0006946274802F02EFA0121254802F086FEC8
:101BE0000121234802F082FD01221146204802F023
:101BF00098FD0EBD10B5FFF7C5FFFFF7D8FF10BD6C
:101C000010B501211A4803F03AF878B301211848B9
:101C100003F046F817480068401C16490860FFF7B3
:101C20009FFC144800680A2807D300201149086067
:101C30000120114908701149087011480078A8B1B5
:101C400010480068401C0F490860084600683228A8
:101C50000CD300210C4802F049FD00210A4802F093
:101C600051FD0020064908700649086010BD0000BB
:101C7000000400404C000020000000201D00002057
:101C80001E00002018000020002C01401CB5044656
:101C900094F82C1099A004F0F5FCE18D9EA004F0BE
:101CA000F1FC3420005D216BCDE90010206B030AAC
:101CB000206B020C206B010E9CA004F0E3FC35208D
:101CC000005D00F00F023520005D01119EA004F0C0
:101CD000D9FCA16BA2A004F0D5FCE08F00F00F03AB
:101CE000E08FC0F30312E08FC0F30321A3A004F040
:101CF000C9FC4020015DA8A004F0C4FC1CBD10B5C7
:101D000004462078411CA8A004F0BCFC20780128DF
:101D100043D1E178ABA004F0B5FC2179B1A004F087
:101D2000B1FC6179B2A004F0ADFCE188B8A004F088
:101D3000A9FC227A012000FA02F1BCA004F0A2FC66
:101D4000617AC1A004F09EFCA17AC8A004F09AFCBC
:101D5000E17AD1A004F096FC217BD9A004F092FC9A
:101D60002169DDA004F08EFC217DDEA004F08AFC58
:101D7000617DE5A004F086FCA17DECA004F082FC6E
:101D8000E17DF3A004F07EFC217EFAA004F07AFC51
:101D900094F82010FEA004F075FC10BD08B54FF4B7
:101DA000C06001F081FC31208DF8000000208DF82A
:101DB00001008DF8020001208DF80300684601F053
:101DC00078FC08BD08B5002003F0ADFE002003F04C
:101DD000ADFE03F07DFE00214FF4806001F0E1FFD5
:101DE0004FF4FC50ADF8000004208DF80300694664
:101DF000F04801F027FD0420ADF800008DF8030045
:101E00006946ED4801F01EFD08BD08B501213020EE
:101E100001F0D4FF4FF4F850ADF8000003208DF826
:101E2000020018208DF803006946E24801F00AFD1F
:101E30000420ADF800006946DF4801F003FD802072
:101E4000ADF8000048208DF803006946D94801F03C
:101E5000F9FC0121880201F0A4FF0121022001F018
:101E6000A0FFFFF79BFF08BD30B58BB005460C46C1
:101E7000D24803F0F3FA0021D14803F0C0FAD14868
:101E80000090019510200290A0080390002004907B
:101E90008020059080000690800007900020089028
:101EA0004FF40050099000200A906946C44803F09E
:101EB0007BFA0121C24803F0A2FA0BB030BD30B565
:101EC0008BB005460C46BD4803F0C8FA0021BC485B
:101ED00003F095FABB480090019500200290A008FD
:101EE00003900020049080200590800006908000E0
:101EF0000790002008904FF4005065E10D0A0D0A8C
:101F00004D616E75666163747572657249443A30ED
:101F1000782578200A0D00004F454D5F6170706C88
:101F20006949443A30782578200A0D0050726F6470
:101F30007563744E616D653A25632563256325637A
:101F40002563200A0D00000050726F64756374569B
:101F5000657273696F6E3A0925642564200A0D0065
:101F600050726F6475637453657269616C4E756D00
:101F70006265723A2578200A0D0000004D616E7589
:101F800066616374757265446174653A2578257875
:101F90002D2578200A0D00004349445F4352433AFF
:101FA0002578200A0D0000004353442053747275B5
:101FB00063747572652056657273696F6E3A257821
:101FC0000A0D00004173796E6368726F6E6F7573EE
:101FD000206163636573732074696D653A30782599
:101FE000780A0D004E5341433A30782578000000BE
:101FF0004D61782064617461207472616E736665EE
:102000007220726174653A307825780A0D000000FC
:102010004361726420636F6D6D616E6420636C61F7
:10202000737365733A307825780A0D004D61782E08
:10203000207265616420626C6F636B206C656E67F3
:1020400074683A25640A0D005061727469616C20ED
:10205000626C6F636B207265616420616C6C6F777A
:1020600065643F2E2E2E25640A0D00005772697498
:102070006520626C6F636B206D6973616C69676E5C
:102080006D656E7420616C6C6F7765643F2E2E2ECB
:1020900025640A0D000000005265616420626C6FC7
:1020A000636B206D6973616C69676E6D656E74201A
:1020B000616C6C6F7765643F2E2E2E25640A0D00CF
:1020C00044535220696D706C656D656E7465643F34
:1020D0002E2E2E25640A0D00435F53697A653A253A
:1020E000640A0D004D61782E20726561642063756D
:1020F0007272656E7440564444206D696E3A307851
:1021000025780A0D000000004D61782E207265616F
:10211000642063757272656E7440564444206D612C
:10212000783A307825780A0D000000004D61782E4D
:102130002077726974652063757272656E7440569B
:102140004444206D696E3A307825780A0D0000000D
:102150004D61782E2077726974652063757272659F
:102160006E7440564444206D61783A307825780A80
:102170000D0000004465766963652073697A652007
:102180006D756C7469706C6965723A25640A0D002E
:102190005061727469616C20626C6F636B2077723E
:1021A00069746520616C6C6F7765643F2E2E2E25F7
:1021B000640A0D00001001400014014000F00010FE
:1021C0004404024080800140099000200A90694642
:1021D000FE4803F0E9F80121FC4803F010F90BB0C8
:1021E00030BD10B5FA4803F025F910BD10B5FFF762
:1021F000E9FD10BD014600BFF648406B00F0450008
:102200000028F9D040F2FF50F24A9063104640692E
:1022100008221040C0B270472DE9FC4107460D4628
:10222000002600240020009001900820EA49086060
:1022300010204860402088600020C8604FF4806013
:102240000861084603F092FC1020FFF7D3FF044614
:1022500014B12046BDE8FC81E04800880004DE4956
:10226000086037204860402088600020C8604FF434
:1022700080600861084603F079FC3720FFF7BAFF59
:1022800004460CB12046E5E74FF0FF30D449086022
:1022900008204860302088600220C8600020086163
:1022A00001204861084603F08AFC0020CA49086002
:1022B00033204860402088600020C8604FF4806070
:1022C0000861084603F052FC3320FFF793FF0446F1
:1022D0000CB12046BEE709E04FF4001003F0BDFC4E
:1022E00020B103F08EFC4DF82600761CB948406BF7
:1022F00040F22A6108400028EED0082003F0ADFC2F
:1023000028B1082003F0B3FC04242046A2E70220F1
:1023100003F0A3FC28B1022003F0A9FC022420460C
:1023200098E7202003F099FC28B1202003F09FFCBF
:10233000062420468EE74FF4007003F08EFC30B187
:102340004FF4007003F093FC0724204682E740F22C
:10235000FF5003F08CFC00980006009901F47F41C7
:1023600040EA0120009901F47F0140EA1120009920
:1023700040EA1160686001980006019901F47F410C
:1023800040EA0120019901F47F0140EA11200199FE
:1023900040EA1160286020465CE77CB505460024D1
:1023A00000200090019003F0FFFB00F0007010B1DE
:1023B0000E2420467CBD8949098888B26946FFF70A
:1023C0002BFF04460CB12046F4E7012D36D10198CD
:1023D00000F4802000282ED08048008800047E4928
:1023E000086037204860402088600020C860A8024C
:1023F0000861084603F0BAFB3720FFF7FBFE0446EE
:102400000CB12046D6E702207349086006204860D8
:10241000402088600020C8604FF480600861084652
:1024200003F0A4FB0620FFF7E5FE04460CB12046AE
:10243000C0E72046BEE725242046BBE7019800F40C
:10244000803078B36548008800046349086037200D
:102450004860402088600020C8604FF480600861B8
:10246000084603F083FB3720FFF7C4FE04460CB197
:1024700020469FE700205849086006204860402019
:1024800088600020C8604FF480600861084603F04F
:102490006DFB0620FFF7AEFE04460CB1204689E72F
:1024A000204687E7FFE72524204683E770B50446EA
:1024B00000254C480068032802D12725284670BD16
:1024C0004848006838B147480068012803D04548AB
:1024D000006802282CD1B4F5805F02D12725284658
:1024E000EDE7B4F5006F13D10120FFF756FF054665
:1024F000F5B900203C4908750860486088604FF4D1
:102500000060C86000200861084603F0EFFA0FE0A1
:102510000020FFF742FF054655B9002032490875F3
:10252000086048608860C8600861084603F0DEFA09
:102530002846C4E770B504460025274804600720F4
:1025400025494860402088600020C8604FF48060C2
:102550000861084603F00AFB0720FFF74BFE05461B
:10256000284670BD30B50146002000221D4B1B7867
:1025700081F84E30194B1B88A1F84C301B4B1B685F
:102580001A0E93090B70C2F383034B7002F003031E
:102590008B70164B1B68C3F30742CA70134B1B8822
:1025A000C3F307220A71114B1A784A715B681A0E3D
:1025B0001301CB800D4B5B68C3F30742CB8843EA22
:1025C0001213CB8002F00F030B7211E0440402409F
:1025D000002000100080014038010020540000203D
:1025E0004C0100205000002020010020A00000200D
:1025F000FB4B9B88C3F30722D3094B72C2F38013B2
:102600008B72C2F34013CB72C2F300130B7300231F
:102610004B73F44B1B681BB1F24B1B68012B3CD175
:1026200093071B0D0B61EE4B1A790B6943EA82038A
:102630000B61EB4B9B681A0E0B6943EA92130B611B
:10264000C2F3C2030B7502F007034B75E44B9B68A2
:10265000C3F3074253098B75C2F38203CB7593070B
:102660005B0F0B76DE4B1B89C3F307220B7E43EA1D
:10267000D2130B760B695B1C4B640C7E4B6CA41C59
:102680000125A5406B434B640C7A0123A3408B6466
:10269000D1E9113463434B6421E0D24B1B68022B18
:1026A0001DD1CF4B1A7993069B0A0B61CC4B9B68CB
:1026B0001A0E0B6943EA02230B61C94B9B68C3F3F3
:1026C00007420B6913430B61C54B1B89C3F30722F8
:1026D0000B695B1CDB044B644FF400738B64C2F327
:1026E000801301F8193F93065B0E4B70BC4B1A7AAE
:1026F0004B7843EAD2134B7002F07F038B70B84BD8
:10270000DB681A0ED309CB70C2F341130B71C2F30D
:1027100082034B7193071B0F8B71B14BDB68C3F3C3
:1027200007428B7943EA92138B71C2F34013CB714A
:1027300000230B7202F001034B72A94B9B89C3F378
:102740000722D3098B72C2F38013CB72C2F34013FA
:102750000B73C2F300134B73C2F381038B7302F04C
:102760000303CB739E4B1A7B53080B7401234B74EA
:102770009D4B1B681A0ECA7419399B4B1B68C3F317
:1027800007421402CC85984B1B88C3F30722CB8DDC
:102790001343CB85944B1A7814060C635B681A0EAE
:1027A0000B6B43EA02440C638F4B5B68C3F3074235
:1027B0000B6B43EA02240C638B4B9B88C3F3072209
:1027C0000B6B13430B63884B1A7934235A54864B93
:1027D0009B681A0E35235A54834B9B68C3F30742F8
:1027E00014068C63804B1B89C3F307228B6B43EA6F
:1027F00002448C637C4B1A7A8B6B43EA02248C6311
:10280000794BDB681A0E8B6B13438B63764BDB685B
:10281000C3F307423C235B5C43EA12143C235C5441
:1028200013071C0DCC87704B9B89C3F30722CB8FFA
:102830001343CB876C4B1A7B540840235C54012410
:1028400041235C5430BD70B500256848446B01E0FD
:102850006648446B04F045000028F9D004F00400F9
:1028600028B10325042003F002FA284670BD04F0C5
:10287000010028B10125012003F0F9F92846F5E708
:1028800040F2FF5003F0F3F92846EFE72DE9F0415D
:1028900006460F464FF000085448456B01E0534888
:1028A000456B05F045000028F9D005F0040038B16B
:1028B0004FF00308042003F0DAF94046BDE8F08148
:1028C00005F0010030B14FF00108012003F0CFF90D
:1028D0004046F3E703F064F9B04203D04FF010082C
:1028E0004046EBE740F2FF5003F0C1F9002003F04F
:1028F0005BF9044604F4604018B9200C3880404667
:10290000DCE704F4005008B11320D7E704F480405A
:1029100008B11020D2E704F4004008B10F20CDE741
:102920004046CBE738B500240120009003F009F9B8
:1029300010B92524204638BD2A480068042828D02C
:1029400000202B49086002204860C02088600020D9
:10295000C8604FF480600861084603F007F9FFF78C
:1029600072FF04460CB12046E5E7002003F01CF995
:102970001D490860042003F017F91B49486008202E
:1029800003F012F9184988600C2003F00DF916497C
:10299000C8601448006858B112480068012807D080
:1029A00010480068062803D00E480068022821D18C
:1029B00000200F4908600320486040208860002004
:1029C000C8604FF480600861084603F0CFF869469C
:1029D0000320FFF75BFF044664B12046ABE700002D
:1029E000A000002050000020B00000200080014026
:1029F00038010020FE48006804282ED0BDF80000F1
:102A0000FC490860BDF800000004FB49086009208B
:102A10004860C02088600020C8604FF48060086172
:102A2000084603F0A3F8FFF70EFF04460CB120465A
:102A300081E7002003F0B8F8F0490860042003F0B3
:102A4000B3F8EE494860082003F0AEF8EB4988601F
:102A50000C2003F0A9F8E949C860002420466AE781
:102A600070B50025E648446B01E0E548446B04F08E
:102A700045000028F9D004F0040028B10325042003
:102A800003F0F5F8284670BD40F2FF5003F0EFF870
:102A90002846F8E770B500264FF48035D848446BD7
:102AA00002E06D1ED648446B04F0450008B9002DC5
:102AB000F7D115B104F0040028B10326042003F077
:102AC000D6F8304670BD04F0400028B10026402002
:102AD00003F0CDF83046F5E73046F3E770B5002552
:102AE0004FF4803400E0641E24B1802003F0B5F878
:102AF0000028F8D014B90325284670BD40F2FF50D5
:102B000003F0B5F82846F8E72DE9F0410024002647
:102B100000250027A046B220BA49087500200860A9
:102B200048608860C8600861084602F0DFFF032043
:102B300002F0FCFF012002F0F6FF0020AE49086021
:102B400048608860C8604FF480600861084603F000
:102B50000DF8FFF7C3FF044614B12046BDE8F0812D
:102B60004FF4D570A4490860082048604020886070
:102B70000020C8604FF480600861084602F0F6FF4C
:102B8000FFF788FF04462CB90120994908604FF0EF
:102B9000804812E0002098490860372048604020B3
:102BA00088600020C8604FF480600861084602F029
:102BB000DDFF3720FFF71EFB044600208E4908602A
:102BC00037204860402088600020C8604FF4806053
:102BD0000861084602F0CAFF3720FFF70BFB0446E6
:102BE000002C4AD136E00020834908603720486035
:102BF000402088600020C8604FF48060086108466B
:102C000002F0B4FF3720FFF7F5FA04460CB1204676
:102C1000A4E77D4848EA0000774908602920486019
:102C2000402088600020C8604FF48060086108463A
:102C300002F09CFFFFF714FF04460CB120468DE71D
:102C4000002002F0B1FF0646012080EAD67080F035
:102C500001076D1C1FB94FF6FF708542C3D34FF6B5
:102C6000FF70854202D31B24204677E706F08040A0
:102C7000060002D002205E49086020466EE710B5CB
:102C80000024FFF7C2F802F023FFFFF73DFF0446E0
:102C90000CB1204610BDFFF745FE04460CB120469E
:102CA000F8E7002057490875086048608860C860E8
:102CB0000861084602F01AFF4CB95448FFF752FC6D
:102CC00004465248FEF7E2FF5048FFF718F834B9BF
:102CD0004E49B1F84C100804FFF72CFC044624B907
:102CE0004FF40060FFF7E2FB04462046D2E770B5E0
:102CF000044600253F48008800044149886040F2AE
:102D00004D40C8600D20FFF775FA05460DB1284605
:102D100070BD3B48406920602846F9E708B50120AE
:102D2000009080213A4800F020FE08B10020009079
:102D30009DF8000008BD08B500200090FFF7EEFFE9
:102D4000012809D16846FFF7D2FF08B1FF2008BD6E
:102D50000098C0F34320FAE7FF20F8E710B50424F9
:102D6000FFF7E9FF0446042C01D1002010BDFF2C21
:102D700001D10220FAE70120F8E710B50024002075
:102D800002F0D4FE204610BD70B504460025002692
:102D9000002002F009FF00F0007010B10E25284657
:102DA00070BD4020144908601020486040208860B1
:102DB0000020C8604FF480600861084602F0D6FE2B
:102DC0001020FFF717FA05460DB12846E8E7094835
:102DD0000088000408490860372048604020886067
:102DE0000020C8604FF480600861084612E00000CF
:102DF000500000205400002038010020A0000020D6
:102E0000008001402001002000001080D000002040
:102E10000010014002F0AAFE3720FFF7EBF905464B
:102E20000DB12846BCE74FF0FF30FE490860402056
:102E30004860602088600220C8600020086101208E
:102E40004861084602F0BBFE0020F74908600D20EB
:102E50004860402088600020C8604FF480600861AE
:102E6000084602F083FE0D20FFF7C4F905460DB1B8
:102E7000284695E70EE04FF4004002F0EEFE48B120
:102E8000002604E002F0BDFE44F82600761C082E61
:102E9000F8D32034E548406B40F22A61084000280E
:102EA000E9D0082002F0D9FE28B1082002F0DFFEA8
:102EB0000425284674E7022002F0CFFE28B1022044
:102EC00002F0D5FE022528466AE7202002F0C5FE62
:102ED00028B1202002F0CBFE0625284660E74FF4FB
:102EE000007002F0BAFE30B14FF4007002F0BFFE85
:102EF0000725284654E703E002F083FE2060241DE6
:102F00004FF4001002F0A9FE0028F5D140F2FF5066
:102F100002F0ADFE284643E770B5044600260025C2
:102F2000C348FFF731FF06460EB1304670BDC048BA
:102F3000007885092570BE480078C0F3401565709B
:102F4000BB48857828026080B948C57860882843E6
:102F50006080B748057928066060B54845796068A3
:102F600040EA05406060B2488579606840EA052023
:102F70006060AF48C579606828436060AC48057AF6
:102F80002572457A6572807A0509A572A848C57AC6
:102F90002802A081A648057BA0892843A081A448D7
:102FA000407B8508A573A248407B00F00305E573CC
:102FB0003046BBE72DE9F04107460C461546002692
:102FC00000209C4908709C4908609C49086097490A
:102FD000C8629B480068022801D10502640A4FF0CC
:102FE000FF309049086008464560902088600220C4
:102FF000C8600020086101204861084602F0DFFD3A
:103000008948046011208849486040208860002079
:10301000C8604FF480600861084602F0A7FD1120E7
:10302000FFF7E8F8064616B13046BDE8F081012109
:10303000080202F08BFD012002F095FD294638467A
:10304000FEF73DFF3046F0E72DE9F04180460D46A2
:1030500014461E460027002076490870764908600D
:1030600001207649086000207049C86274480068F1
:10307000022801D104026D0A6B48046010206A49DD
:103080004860402088600020C8604FF4806008617C
:10309000084602F06BFD1020FFF7ACF8074617B1A9
:1030A0003846BDE8F0814FF0FF305E49086006FB0E
:1030B00004F04860902088600220C8600020086109
:1030C00001204861084602F07AFD57480560122049
:1030D00055494860402088600020C8604FF48060F7
:1030E0000861084602F042FD1220FFF783F8074608
:1030F0000FB13846D5E70121080202F027FD012073
:1031000002F031FD06FB04F14046FEF7D8FE3846DA
:10311000C7E710B5002400BFFFF763F830B9464891
:10312000006818B9434800780028F5D04148007875
:1031300010B14048007810BD2046FCE72DE9F04171
:1031400007460C461546002600203A4908703A49C1
:1031500008603A4908603549C86239480068022861
:1031600001D10502640A3048046018202E494860E5
:10317000402088600020C8604FF4806008610846E5
:1031800002F0F4FC1820FFF735F8064616B1304679
:10319000BDE8F0814FF0FF302249086008464560E5
:1031A000902088600020C8600861012048610846BE
:1031B00002F005FD0121080202F0C8FC294638464C
:1031C000FEF752FE012002F0CEFC3046E0E72DE98A
:1031D000F84380460E4617461C4600250020009006
:1031E000144908701449086001201449086000203F
:1031F0000E49C86212480068022801D10702760A07
:1032000010480088000408490860372048604020C2
:1032100088600020C8604FF480600861084602F0B2
:10322000A5FC11E04C010020380100200080014085
:10323000C00000205C00002060000020580000203A
:1032400050000020540000203720FEF7D3FF054631
:1032500015B12846BDE8F883FA4804601720F949FB
:103260004860402088600020C8604FF4806008619A
:10327000084602F07BFC1720FEF7BCFF05460DB1A7
:103280002846E7E7EF4806601920EE4948604020ED
:1032900088600020C8604FF480600861084602F032
:1032A00065FC1920FEF7A6FF05460DB12846D1E7BB
:1032B0004FF0FF30E449086004FB07F048609020BD
:1032C00088600020C860086101204861084602F05B
:1032D00076FC0121080202F039FC012002F043FCD7
:1032E00004FB07F14046FEF7BFFD2846B2E710B5E4
:1032F000002400BFFEF775FF30B9D448006818B944
:10330000D34800780028F5D0D148007810B1D048D3
:10331000007810BD40F2FF5002F0A9FC2046F8E70B
:10332000CC48406B00F4405008B1012070470020A9
:10333000FCE710B500240020C649886040F24C40EC
:10334000C8600C20FEF756FF0446204610BD7CB531
:1033500004460025002001900090BF48008800042A
:10336000B84908600D204860402088600020C8608F
:103370004FF480600861084602F0F8FBB548406BE6
:10338000009002E0B348406B0090009800F04500C8
:103390000028F7D0009800F0040028B1032504208D
:1033A00002F065FC28467CBD009800F0010028B1C1
:1033B0000125012002F05BFC2846F4E702F0F0FB57
:1033C000009000980D2802D010252846EBE740F227
:1033D000FF5002F04CFC002002F0E6FB0190019847
:1033E000C0F3432020709D490198084008B9284641
:1033F000D9E7019800F0004008B11C20D3E70198FC
:1034000000F0804008B10920CDE7019800F000509D
:1034100008B10A20C7E7019800F0805008B10B20DE
:10342000C1E7019800F0006008B10C20BBE70198EB
:1034300000F0806008B10D20B5E7019800F08070C1
:1034400008B10E20AFE7019800F4000008B10F208A
:10345000A9E7019800F4800008B11020A3E70198C3
:1034600000F4001008B111209DE7019800F48010CD
:1034700008B1122097E7019800F4002008B113204A
:1034800091E7019800F4802008B114208BE701989F
:1034900000F4003008B1152085E7019800F4803071
:1034A00008B116207FE7019800F4004008B117200A
:1034B00079E7019800F4804008B1182073E701987B
:1034C00000F4005008B119206DE7019800F00800E1
:1034D00008B11A2067E7284665E72DE9FC41054653
:1034E0000E46002400270020019000905C484068B0
:1034F000202101EA105018B925242046BDE8FC819E
:1035000054484068C0B2801C5649B1FBF0F00190AD
:10351000002002F049FB00F0007010B10E2420469C
:10352000ECE751480068022801D16D0A760A4E483E
:10353000006838B14C480068012803D04A48006848
:1035400002282BD13F48056020203E49486040209A
:1035500088600020C8604FF480600861084602F06F
:1035600005FB2020FEF746FE04460CB12046C5E7C9
:10357000344806602120334948604020886000209C
:10358000C8604FF480600861084602F0EFFA21201D
:10359000FEF730FE04460CB12046AFE70020294973
:1035A000086026204860402088600020C8604FF4F2
:1035B00080600861084602F0D9FA2620FEF71AFE5C
:1035C00004460CB1204699E7002700E07F1C0198D3
:1035D0008742FBD36846FFF7BAFE044603E068461D
:1035E000FFF7B5FE04463CB99DF800000728F6D069
:1035F0009DF800000628F2D020467FE710B51B4852
:10360000006801280BD100201249886040F24C402C
:10361000C8600C20FEF7EEFD0D49087002E00020A6
:103620000B4908704FF4807002F02EFB00214FF41C
:10363000807002F08BFA0120044908600448007889
:1036400010BD0000380100204C0100206000002067
:103650005C000020008001405400002008E0FFFDD5
:10366000A0000020C0D4010050000020580000201D
:103670000146002002E04910421CD0B20129FAD1D3
:10368000704700000648804706480047FEE7FEE70F
:10369000FEE7FEE7FEE7FEE7FEE7FEE7FEE7FEE702
:1036A000130600083101000831490143314A116015
:1036B000704770B5002100230F22C47804B32D4C4D
:1036C000246804F4E064C4F5E064210AC1F1040351
:1036D000CA40447804FA03F1847814402143090174
:1036E000254C0678A155047804F01F050124AC4050
:1036F00005786D11AD0005F1E025C5F8004109E040
:10370000047804F01F050124AC401C4D06787611A6
:1037100045F8264070BD1A4A0A400243154B1B1F4C
:103720001A60704739B1134A121D12680243114BD7
:103730001B1D1A6006E00F4A121D126882430D4BD2
:103740001B1D1A607047042808D14FF0E021096959
:1037500041F004014FF0E022116107E04FF0E02159
:10376000096921F004014FF0E02211617047000067
:103770000000FA050CED00E000E400E080E100E06C
:1037800080FFFF1F10B50446CC48844208D10121B8
:10379000042000F02DFB0021042000F029FB46E06E
:1037A000C748844208D10121082000F021FB0021F4
:1037B000082000F01DFB3AE0C248844208D10121F4
:1037C000102000F015FB0021102000F011FB2EE06E
:1037D000BD48844208D10121202000F009FB0021CE
:1037E000202000F005FB22E0B848844208D10121E6
:1037F000402000F0FDFA0021402000F0F9FA16E028
:10380000B348844208D10121802000F0F1FA002160
:10381000802000F0EDFA0AE0AE48844207D1012191
:10382000801500F0E5FA0021A01500F0E1FA10BDC6
:1038300010B50121084600F0DBFA0021012000F05C
:10384000D7FA10BD2DE9F0410246002500260020E0
:1038500000230024002791F803C00CF00F0591F815
:1038600003C00CF0100CBCF1000F03D091F802C0A3
:103870004CEA050591F800C0BCF1000F31D0146886
:1038800000202BE04FF0010C0CFA00F3B1F800C05F
:103890000CEA03069E4220D183004FF00F0C0CFA75
:1038A00003F7BC4305FA03FC4CEA040491F803C097
:1038B000BCF1280F06D14FF0010C0CFA00FCC2F845
:1038C00014C00AE091F803C0BCF1480F05D14FF0D5
:1038D000010C0CFA00FCC2F810C0401C0828D1D31F
:1038E0001460B1F800C0BCF1FF0F34DD5468002053
:1038F0002EE000F1080C4FF0010808FA0CF3B1F8C3
:1039000000C00CEA03069E4221D183004FF00F0C49
:103910000CFA03F7BC4305FA03FC4CEA040491F8E3
:1039200003C0BCF1280F05D100F1080C08FA0CF80F
:10393000C2F8148091F803C0BCF1480F07D100F120
:10394000080C4FF0010808FA0CF8C2F81080401C6F
:103950000828CED35460BDE8F0814FF6FF71018096
:10396000022181700421C1707047024600209368D3
:103970000B400BB1012000E0002070470146886831
:1039800080B2704702460020D3680B400BB1012083
:1039900000E0002070470146C86880B270470161AE
:1039A0007047416170470AB1016100E041617047B1
:1039B000C16070474FF480320A4382618161826145
:1039C00082698269704702460020434B18684FF6AF
:1039D0008073184040EA021008433F4B186070475C
:1039E0003E49C8617047F0B50A4600230024002113
:1039F000002500F00046B6F1004F02D1364EF169C5
:103A000001E0354E7168C0F3034583B200F44016FF
:103A1000B6F5401F08D121F070612F4E766826F070
:103A200070662D4F7E6012E000F48016B6F5801FA0
:103A300006D1032606FA05F4A14341F0706106E0C1
:103A4000460D360103FA06F6B14341F0706122B12A
:103A5000460D360103FA06F6314300F00046B6F192
:103A6000004F02D11C4EF16101E01B4E7160F0BDB0
:103A700030B500228B071C0F0F2303FA04F2164BFC
:103A800008338C1053F824309343134C08348D10B2
:103A900044F8253023468C1053F824308C07240F2B
:103AA00000FA04F423430C4C08348D1044F82530FC
:103AB00030BD0A49DC310860704700000008014051
:103AC000000C0140001001400014014000180140AA
:103AD000001C014000200140000001400000204285
:103AE000DF48006840F00100DD4908600846406892
:103AF000DC490840DA49486008460068DA4908406D
:103B0000D74908600846006820F48020086008460D
:103B1000406820F4FE0048604FF41F008860704742
:103B2000CF49096821F48031CD4A116011460968F6
:103B300021F480211160B0F5803F03D0B0F5802FD3
:103B40000ED106E0C649096841F48031C44A1160CB
:103B500007E0C349096841F4A021C14A116000E0AF
:103B600000BF00BF704710B50146002200230020AF
:103B70004A11012A02D1BA4C236806E0022A02D176
:103B8000B74C236A01E0B64C636A01F01F020124BE
:103B900094401C400CB1012000E0002010BD38B55D
:103BA000002000900024002500BF3120FFF7DBFF3C
:103BB00005460098401C00900098B0F5A06F01D019
:103BC000002DF2D03120FFF7CEFF08B1012400E034
:103BD0000024204638BD01460020A14A106820F08C
:103BE000F80040EAC10010607047A04908607047C3
:103BF000024600209A4B586820F47C1042EA0103E8
:103C00001843974B586070479849086670470146BB
:103C10000020934A506820F003000843506070472A
:103C20008F48406800F00C007047014600208C4A25
:103C3000506820F0F00008435060704701460020B3
:103C4000874A506820F4E06008435060704701469E
:103C50000020834A506820F4605040EAC100506060
:103C6000704729B17E4A527A02437D4B5A7204E072
:103C70007B4A527A82437A4B5A7270477B49D831D9
:103C80000860704701460020754A506820F44040A3
:103C90000843506070470021714A20321170704A09
:103CA00082F82010012802D004280AD104E0012162
:103CB0006B4A2032117005E00521694A20321170EB
:103CC00000E000BF00BF7047694908607047644961
:103CD000096A0143624A11627047654944390860C4
:103CE000704730B500210022002400235C4D6D6830
:103CF00005F00C0121B1042905D0082923D105E0E4
:103D00005C4D056022E05C4D05601FE0544D6D6820
:103D100005F47012524D6D6805F48034022505EBF0
:103D200092421CB9554D554305600BE04C4D6D68F2
:103D300005F400351DB1524D5543056002E04E4D6E
:103D40005543056002E04B4D056000BF00BF444D88
:103D50006D6805F0F00109094A4D6B5C0568DD40AE
:103D600045603F4D6D6805F4E061090A454D6B5CA7
:103D70004568DD4085603A4D6D6805F46051C90ABB
:103D8000404D6B5C4568DD40C560354D6D6805F4A0
:103D90004041890B3C4D6B5CC568B5FBF3F5056193
:103DA00030BD29B12E4A526902432D4B5A6104E0BD
:103DB0002B4A526982432A4B5A61704729B1284ADB
:103DC00092690243264B9A6104E0254A9269824334
:103DD000234B9A61704729B1214AD2690243204B93
:103DE000DA6104E01E4AD26982431D4BDA617047F2
:103DF00029B11B4AD2680243194BDA6004E0184A21
:103E0000D2688243164BDA60704729B1144A1269AE
:103E10000243134B1A6104E0114A12698243104BAA
:103E20001A61704712494039086070470F49C864E9
:103E300070470B49C87170470948406A40F080706C
:103E400007494862704701460020054A92680A40C7
:103E50000AB1012000E000207047014988727047D4
:103E6000001002400000FFF8FFFFF6FE0000424293
:103E70008004424200127A00001BB70000093D0096
:103E8000808D5B00640000207400002010B50446A3
:103E9000FE48844208D10121C014FFF7A9FF002188
:103EA000E014FFF7A5FFC4E0B4F1804F08D1012171
:103EB0000846FFF7AAFF00210120FFF7A6FFB8E0A0
:103EC000F348844208D101210220FFF79EFF002120
:103ED0000220FFF79AFFACE0EE48844208D10121AE
:103EE0000420FFF792FF00210420FFF78EFFA0E0DF
:103EF000E948844208D101210820FFF786FF00210C
:103F00000820FFF782FF94E0E448844208D10121B1
:103F10001020FFF77AFF00211020FFF776FF88E0DE
:103F2000DF48844208D101212020FFF76EFF0021E5
:103F30002020FFF76AFF7CE0DA48844208D10121A3
:103F40004014FFF755FF00216014FFF751FF70E0A8
:103F5000D548844209D10121C804FFF749FF002157
:103F60004FF40020FFF744FF63E0D048844209D1BA
:103F700001210805FFF73CFF00214FF48010FFF7F7
:103F800037FF56E0CA48844209D101214805FFF7AE
:103F90002FFF00214FF40010FFF72AFF49E0C5482A
:103FA000844208D101214020FFF72FFF002140204B
:103FB000FFF72BFF3DE0C048844208D1012180205B
:103FC000FFF723FF00218020FFF71FFF31E0BB48F0
:103FD000844208D101218015FFF717FF0021A015A9
:103FE000FFF713FF25E0B648844209D101210804F8
:103FF000FFF7FEFE00214FF48030FFF7F9FE18E0D6
:10400000B048844209D101214804FFF7F1FE0021A4
:104010004FF40030FFF7ECFE0BE0AB48844208D1D0
:1040200001218804FFF7E4FE00214FF48020FFF710
:10403000DFFE10BD00220288944B98420ED0994BAF
:1040400098420BD0B0F1804F08D0914B984205D0E8
:10405000904B984202D0904B984204D14FF68F7308
:104060001A404B881A438D4B984207D08C4B98428C
:1040700004D04FF6FF431A40CB881A4302808B8846
:1040800083850B880385814B98420BD0854B9842E2
:1040900008D08B4B984205D08A4B984202D08A4B6D
:1040A000984201D10B7A038601238382704770B551
:1040B000002400220023058C4FF6FE76354005844F
:1040C000028C8388048B4FF68F752C40B51E2C40D4
:1040D0000D882C43751E2A400D892A434D882A439A
:1040E0006A4DA8420BD06F4DA84208D0744DA8422B
:1040F00005D0744DA84202D0734DA84213D14FF69B
:10410000F7752A404D892A434FF6FB752A408D8862
:104110002A434FF6FF652B404FF6FF552B408D8904
:104120002B43CD892B4383800483CD8885860284ED
:1041300070BD70B5002400220023058C4FF6EF7689
:1041400035400584028C8388048B48F6FF752C402B
:104150004FF6FF452C400D884FF6FF7606EA052501
:104160002C434FF6DF752A400D8906EA05152A43D0
:104170004D8806EA05152A43444DA84202D0494D10
:10418000A8421DD14FF67F752A404D894FF6FF7624
:1041900006EA05152A434FF6BF752A408D8806EAC0
:1041A00005152A434FF6FF352B404FF2FF752B4084
:1041B0008D8906EA85052B43CD8906EA85052B43C3
:1041C00083800483CD880587028470BD70B5002488
:1041D00000220023058C4FF6FF6635400584028CD3
:1041E0008388848B4FF68F752C404FF6FC752C40DE
:1041F0000D882C434FF6FF552A400D894FF6FF7668
:1042000006EA05252A434D8806EA05252A431F4D5F
:10421000A84202D0234DA8421DD14FF2FF752A407B
:104220004D894FF6FF7606EA05252A434FF6FF35FE
:104230002A408D8806EA05252A434EF6FF752B4055
:104240004DF6FF752B408D8906EA05152B43CD8968
:1042500006EA05152B4383808483CD8885870284F5
:1042600070BD70B5002200230024058C4EF6FF7649
:1042700035400584038C8488828B48F6FF752A407C
:104280004FF6FF452A400D8820E00000002C014039
:104290000004004000080040000C004000100040F6
:1042A0000014004000340140004C01400050014027
:1042B0000054014000180040001C00400020004055
:1042C0000040014000440140004801404FF6FF76A5
:1042D00006EA05252A434DF6FF752B400D8906EAAF
:1042E00005352B434D8806EA05352B43FA4DA84288
:1042F00002D0FA4DA84208D14BF6FF752C408D89AB
:104300004FF6FF7606EA85152C4384808283CD889C
:10431000A0F84050038470BD828B4FF2FF331A40E7
:104320008283828B4FF6FF7303EA01231A43828351
:104330007047F0B50C461546002200210026078C78
:104340004EF6FF7C07EA0C070784828B018C4FF640
:10435000FF7707EA043640F6FF473A404FF6FF770B
:1043600007EA05273A434FF6FF7707EA03373A4350
:10437000D94FB8420ED0D94FB8420BD0B0F1804FD0
:1043800008D0D74FB84205D0D64FB84202D0D64F4A
:10439000B84206D14DF6FF77394046F4805739438D
:1043A00005E047F6FF57394044F48057394382838C
:1043B0000184F0BD828B4FF6F3731A408283828BA7
:1043C0000A4382837047F0B50C461546002200214F
:1043D0000026078C4FF6FF6C07EA0C070784828BD8
:1043E000018C4FF6FF7707EA04264FF60C773A4028
:1043F0004FF6FF7707EA03172F433A43B64FB84209
:104400000ED0B64FB8420BD0B0F1804F08D0B44FA9
:10441000B84205D0B34FB84202D0B34FB84206D12C
:104420004FF6FF57394046F48077394305E04FF2A5
:10443000FF57394044F48077394382830184F0BDCB
:10444000028B4FF2FF331A400283028B4FF6FF7349
:1044500003EA01231A4302837047F0B50C46154660
:10446000002200210026078C4FF6EF7C07EA0C079C
:104470000784028B018C4FF6FF7707EA041640F69B
:10448000FF473A404FF6FF7707EA03373A434FF6C4
:10449000FF7707EA05273A438F4FB8420ED08F4F78
:1044A000B8420BD0B0F1804F08D08D4FB84205D044
:1044B0008C4FB84202D08C4FB84206D14FF6DF770E
:1044C000394046F01007394305E04FF65F77394031
:1044D00044F01007394302830184F0BD028B4FF68C
:1044E000F3731A400283028B0A4302837047F0B5CC
:1044F0000C46154600220021068C4FF6FE773E4002
:104500000684028B018C4FF60C7632407E1C06EA44
:1045100003162E433243704EB0420ED06F4EB0425F
:104520000BD0B0F1804F08D06D4EB04205D06D4E2B
:10453000B04202D06C4EB04206D14FF6FD7631400B
:1045400044F00106314305E04FF6F576314044F082
:104550000106314302830184F0BD70B505460C4667
:104560005D4885420ED05D4885420BD0B5F1804F45
:1045700008D05B48854205D05A48854202D05A4847
:10458000854200D100E000BF208850B92389A2886D
:1045900061882846FFF7ABFFE1882846FFF79EFFBA
:1045A00025E0208804280AD12389A288618828462A
:1045B000FFF753FFE1882846FFF742FF17E0208806
:1045C00008280AD12389A28861882846FFF7FBFEC4
:1045D000E1882846FFF7EEFE09E02389A28861887A
:1045E0002846FFF7A6FEE1882846FFF795FE70BD36
:1045F0002DE9F04105460C4600260127608808B9E0
:10460000022600E00026A088012801D1022700E050
:1046100001272088A0B92389A28861882846FFF74E
:1046200066FFE1882846FFF759FF23893A4631465D
:104630002846FFF712FFE1882846FFF701FF13E045
:104640002389A28861882846FFF707FFE18828466A
:10465000FFF7F6FE23893A4631462846FFF747FF23
:10466000E1882846FFF73AFFBDE8F0810A884B88C9
:104670001A438B881A43CB881A430B891A434B89F8
:104680001A438B891A43A0F8442070474FF6FF71F4
:10469000818000210180C18041800172704700212A
:1046A000018041808180C180018141818181C181FE
:1046B0007047002101804180012181800021C1805B
:1046C000018170470021018041808180C18001818A
:1046D0004181818170470000002C0140003401407D
:1046E0000004004000080040000C004021B1028896
:1046F00042F00102028004E002884FF6FE731A4085
:104700000280704731B1B0F8442042F40042A0F872
:10471000442005E0B0F84420C2F30E02A0F8442083
:1047200070471AB183890B43838102E083898B43ED
:10473000838170478182704741EA0203A0F84830C4
:1047400070471AB183890B43838102E083898B43CD
:104750008381704701894FF6F872114001817047DB
:104760000A46002101894FF68F73194011430181D8
:10477000704730B504460D4629462046FFF7F0FF46
:10478000208940F00700208130BD2DE9F04104462A
:104790000D4616461F46602D06D13B460122314686
:1047A0002046FFF75AFE05E03B46012231462046EF
:1047B000FFF79DFE29462046FFF7D2FF208940F0F3
:1047C00007002081BDE8F08130B50C460021018949
:1047D000C9B24FF6FF7505EA032515432543294362
:1047E000018130BD2DE9F04105460E461746984639
:1047F000002443463A4631462846FFF7E5FF2C8918
:104800004FF6F870044044F007044FF68F700440F0
:1048100044F070042C81BDE8F081F0B504460D46EB
:1048200016461F463B46324629462046FFF7CCFF38
:10483000208940F480402081F0BD0185828270474C
:104840000A46002101884FF68F73194011430180F9
:104850007047F0B50C4615461E4600210022002385
:104860000189028B038C4FF6F877394021434FF6CC
:10487000FC473A4040F201173A434FF6DD773B40A0
:104880004FF6FF7707EA06172F433B430181028368
:104890000384F0BD0A460021018B4FF68F73194047
:1048A0001143018370470A460021018B48F6FF73CC
:1048B00019404FF6FF7303EA02231943018370473F
:1048C0000A460021818B4FF68F7319401143818373
:1048D00070470A460021818B48F6FF7319404FF656
:1048E000FF7303EA022319438183704721B10288D1
:1048F00042F08002028004E002884FF67F731A4083
:104900000280704721B1828842F00402828004E074
:1049100082884FF6FB731A408280704721B18288EB
:1049200042F00802828004E082884FF6F7731A4052
:104930008280704721B1828842F00102828004E0C7
:1049400082884FF6FE731A40828070470A46002123
:10495000018B4FF6F77319401143018370470A46E4
:104960000021018B4FF2FF7319404FF6FF7303EAEA
:1049700002231943018370470A460021818B4FF6B9
:10498000F77319401143818370470A460021818BD8
:104990004FF2FF7319404FF6FF7303EA02231943E6
:1049A000818370470A460021018B4FF6FB73194043
:1049B0001143018370470A460021018B4FF6FF33F4
:1049C00019404FF6FF7303EA02231943018370472E
:1049D0000A460021818B4FF6FB73194011438183F6
:1049E00070470A460021818B4FF6FF3319404FF67E
:1049F000FF7303EA02231943818370470A460021AB
:104A0000018B4FF67F7319401143018370470A46AB
:104A10000021018BC1F30E014FF6FF7303EA02235D
:104A20001943018370470A460021818B4FF67F733B
:104A300019401143818370470A460021818BC1F3DD
:104A40000E014FF6FF7303EA022319438183704777
:104A50000A460021018C4FF6FD7319401143018471
:104A600070470A460021018C4FF6F7731940114335
:104A7000018470470A460021018C4FF6DF7319400C
:104A80004FF6FF7303EA02131943018470470A4685
:104A90000021018C4FF67F7319404FF6FF7303EA34
:104AA00002131943018470470A460021018C4FF616
:104AB000FF5319404FF6FF7303EA022319430184A1
:104AC00070470A460021018C4FF2FF7319404FF6E0
:104AD000FF7303EA02231943018470470A46002149
:104AE000018C4DF6FF7319404FF6FF7303EA023352
:104AF00019430184704730B5002301248C40A3B2D0
:104B0000048C9C430484048C02FA01F5ADB22C435E
:104B1000048430BD30B5002304248C40A3B2048C3F
:104B20009C430484048C02FA01F5ADB22C43048446
:104B300030BD70B50346002000241846183001250A
:104B40008D40ACB21D8CA5431D8409B1082909D143
:104B500000EB6100056825F07005056005681543E8
:104B600005600EE00D1FC5F34E052844056825F4C9
:104B7000E045056005684FF6FF7606EA02263543F4
:104B8000056070BD21B1028842F00202028004E09B
:104B900002884FF6FD731A400280704721B10288E7
:104BA00042F00402028004E002884FF6FB731A40D0
:104BB0000280704721B1828842F08002828004E046
:104BC00082884FF67F731A408280704702884FF6C2
:104BD000F7731A40028002880A4302807047828875
:104BE0004FF68F731A40828082880A438280704712
:104BF00002894FF6F8731A40028102890A43028142
:104C0000704702894FF67F731A40028102890A4376
:104C10000281704781847047818570478186704723
:104C20000187704781877047A0F84010704702885D
:104C30004FF6FF431A40028002880A430280704701
:104C40000146888E70470146088F70470146888F5D
:104C500070470146B1F8400070470146888C7047A4
:104C60000146088D704702460020138A0B400BB1A5
:104C7000012000E000207047CA430282704730B52F
:104C80000246002000230024158A05EA01039589C5
:104C900005EA010413B10CB1012000E0002030BD91
:104CA000CA4302827047000001460020FE4A106895
:104CB00000F03800084310607047FB49096821F094
:104CC0000801F94A116011460968014311607047F3
:104CD000F549096821F01001F34A1160114609688D
:104CE000014311607047F148EF494860F04848605F
:104CF0007047EE48EC494860ED4848607047EA4824
:104D0000006940F08000E84908617047E6480069A2
:104D100040F08000E449086170470420E249C96816
:104D200001F0010109B101200EE0DF49C96801F07D
:104D3000040109B1022007E0DB49C96801F0100154
:104D400009B1032000E00420704700B502460423A7
:104D5000FFF7E3FF034603E0FFF7DFFF0346521EC2
:104D6000012B01D1002AF7D102B90523184600BD55
:104D700030B5044604254FF43020FFF7E6FF054622
:104D8000042D17D1C848006940F00200C6490861E7
:104D900008464461006940F0400008614FF430204B
:104DA000FFF7D3FF0546C048006941F6FD71084092
:104DB000BD490861284630BD10B504244FF43020A9
:104DC000FFF7C3FF0446042C16D1B748006940F032
:104DD0000400B54908610846006940F040000861D8
:104DE0004FF43020FFF7B1FF0446AF48006941F6A9
:104DF000FB710840AC490861204610BD00B5024671
:104E00000423FFF78AFF034603E0FFF786FF03460C
:104E1000521E012B01D1002AF7D102B905231846F1
:104E200000BD10B504244FF43020FFF7E7FF04461F
:104E3000042C16D19C48006940F004009A4908618E
:104E40000846006940F0400008614FF43020FFF749
:104E5000D5FF04469448006941F6FB710840924929
:104E60000861204610BD00208F49C96901F0020188
:104E700009B1012000E00020704730B5A5250424C9
:104E8000FFF7F1FF00B100254FF43020FFF75DFF81
:104E90000446042C3AD18548834988608448886058
:104EA0000846006940F0200008610846006940F0AB
:104EB000400008614FF43020FFF747FF0446042C00
:104EC0001BD17948006941F6DF71084076490861D5
:104ED0000846006940F01000086176480580E0024D
:104EE000FFF733FF0446052C10D06F48006941F6E8
:104EF000EF7108406C49086108E0052C06D06A484B
:104F0000006941F6EF71084067490861204630BDED
:104F100078B506460C46042500200090E802FFF70D
:104F200014FF0546042D24D15F48006940F00100BC
:104F30005D4908613480E802FFF707FF0546042D4C
:104F400010D1B01C0090200C00990880E802FFF7F7
:104F5000FCFE05465448006941F6FE71084052497E
:104F6000086106E05048006941F6FE7108404E496C
:104F70000861284678BD70B504460D460426F00247
:104F8000FFF7E3FE0646042E11D14748006940F0C2
:104F90000100454908612580F002FFF7D6FE06466C
:104FA0004148006941F6FE7108403F4908613046BA
:104FB00070BD70B505460E460424E002FFF7C5FE3D
:104FC0000446042C17D1394837498860384888602E
:104FD0000846006940F0100008612E80E002FFF7EB
:104FE000B4FE0446052C06D02F48006941F6EF7147
:104FF00008402D490861204670BD2DE9F043044664
:105000004FF6FF763746B046B1460425E443E6B294
:10501000C4F30727C4F307484FEA1469E802FFF70F
:1050200094FE0546042D49D120481F498860204838
:1050300088600846006940F010000861FF2E06D025
:105040001C4808300680E802FFF77FFE0546042D65
:1050500008D1FF2F06D017480A300780E802FFF773
:1050600074FE0546042D0AD1B8F1FF0F07D0114890
:105070000C30A0F80080E802FFF767FE0546042D1B
:105080000AD1B9F1FF0F07D00A480E30A0F80090FE
:10509000E802FFF75AFE0546052D0FD002480069C9
:1050A00041F6EF71084007E0002002402301674508
:1050B000AB89EFCD00F8FF1F664908612846BDE8BF
:1050C000F08330B5054604244FF43020FFF73DFE51
:1050D0000446042C41D160485E4988605F4888607E
:1050E0000846006940F0200008610846006940F069
:1050F000400008614FF43020FFF727FE0446042CDF
:1051000022D15448006941F6DF71084051490861D5
:105110000846006940F0100008611DB100205049A8
:10512000088002E0A5204E4908804FF43020FFF7A8
:105130000CFE0446052C10D04648006941F6EF717C
:1051400008404449086108E0052C06D04148006940
:1051500041F6DF7108403F490861204630BDF0B597
:1051600005460E46174604243B483A4988603B48AA
:105170008860E002FFF7E9FD0446042C19D13548A8
:10518000006940F010003349086147F0F8003043EF
:1051900028433349891C0880E002FFF7D6FD044606
:1051A000052C06D02B48006941F6EF7108402949CB
:1051B00008612046F0BD2748C0698008704725482F
:1051C000006A704700202349096801F0200109B1F5
:1051D000012000E00020704729B11E4A12690243F5
:1051E0001C4B1A6104E01B4A12698243194B1A6175
:1051F000704701460020012908D1164AD26902F001
:1052000001020AB1012008E0002006E0114AD2683C
:105210000A400AB1012000E0002070470D49C86033
:10522000704704200B49C96801F0010109B1012050
:105230000EE00849C96801F0040109B1022007E045
:105240000449C96801F0100109B1032000E00420FD
:10525000704700000020024023016745AB89EFCD75
:1052600000F8FF1F01684FF6FE7211400160002137
:10527000016041608160C1608D49884208D18C49DC
:105280000839496841F00F01894A083A51608AE0BB
:1052900087491431884208D185490839496841F065
:1052A000F001834A083A51607DE081492831884203
:1052B00008D17F490839496841F470617C4A083A4D
:1052C000516070E07A493C31884208D17849083908
:1052D000496841F47041764A083A516063E0744984
:1052E0005031884208D172490839496841F4702127
:1052F0006F4A083A516056E06D496431884208D1DE
:105300006B490839496841F47001694A083A5160AB
:1053100049E067497831884208D1654908394968C8
:1053200041F07061624A083A51603CE0614988424C
:1053300006D1011F096841F00F01021F116032E020
:105340005C491431884208D15A49091F096841F063
:10535000F001584A121F116025E056492831884251
:1053600008D15449091F096841F47061514A121F5C
:10537000116018E04F493C31884208D14D49091F5E
:10538000096841F470414B4A121F11600BE0494912
:105390005031884207D14749091F096841F47021FB
:1053A000444A121F1160704710B50022026847F688
:1053B000F0739A430C6A8B6823430C6923434C694E
:1053C00023438C692343CC6923434C6A23438C6A6F
:1053D00023431A430260CB6843600B6883604B68C9
:1053E000C36010BD0021016041608160C160016146
:1053F00041618161C161016241628162704721B195
:10540000026842F00102026004E002684FF6FE7397
:105410001A40026070471AB103680B43036002E050
:1054200003688B43036070474160704701464868DA
:1054300080B2704701460020002201F080531BB16A
:105440001C4B083B1A6802E0194B083B1A6802EA39
:1054500001030BB1012000E00020704700F08051F3
:1054600019B11449091F086002E011490839486060
:10547000704701460020002201F080531BB10D4B04
:10548000083B1A6802E00A4B083B1A6802EA01036B
:105490000BB1012000E00020704700F0805119B1ED
:1054A0000449091F086002E0014908394860704753
:1054B000080002400804024010B50446F748844240
:1054C00009D101214805FEF7A0FC00214FF400108E
:1054D000FEF79BFC08E001218805FEF796FC002101
:1054E0004FF48000FEF791FC10BD2DE9F04385B02C
:1054F00004460D460026B1460427DFF8A483A6889B
:105500004FF6C07006406846FEF7EBFBDDF80880FA
:10551000E448B8FBF0F01FFA80F946EA0906A680D5
:1055200020884FF6FE71084020800026DE4928685A
:1055300088420CD828684000B8FBF0F087B2042FEE
:1055400000DA04273E4309F10100208427E0E888BF
:105550004BF6FF71884206D1286800EB4000B8FB8B
:10556000F0F087B209E0286800EBC00101EB001001
:10557000B8FBF0F087B247F48047C7F30B0008B9D7
:1055800047F0010747F4004006434FF4967009FBCB
:1055900000F04FF47A7190FBF1F0401C2084A68358
:1055A000208840F00100208026884FF6F530064024
:1055B000A8886989084306432680A8892989084361
:1055C000208105B0BDE8F08341F2883101600021FF
:1055D00081804BF6FF71C1800021018141814FF430
:1055E00080418181704721B1028842F0010202802E
:1055F00004E002884FF6FE731A400280704721B122
:10560000828842F40062828004E082884FF2FF7355
:105610001A408280704721B1828842F48052828091
:1056200004E082884EF6FF731A408280704721B1F1
:10563000028842F48072028004E002884FF6FF6321
:105640001A400280704721B1028842F40072028041
:1056500004E002884FF6FF531A400280704721B1E0
:10566000028842F48062028004E002884FF6FF3331
:105670001A40028070470A46002181894FF6017363
:10568000194002F0FE0319438181704721B18289DC
:1056900042F00102828104E082894FF6FE731A40D3
:1056A0008281704721B1028842F04002028004E00A
:1056B00002884FF6BF731A40028070471AB1838880
:1056C0000B43838002E083888B4383807047018291
:1056D00070470146088AC0B2704712B141F001011B
:1056E00002E04FF6FE7319400182704708B502468A
:1056F00000200090009200980844009000980088D4
:1057000008BD21B1028842F40042028003E0028811
:10571000C2F30E0202807047B1F5006F04D1028817
:1057200042F40062028004E002884FF2FF731A40E4
:1057300002807047B1F5005F04D1028842F4005244
:10574000028004E002884DF6FF731A400280704721
:1057500021B1028842F48052028004E002884EF6B1
:10576000FF731A4002807047B1F5006F04D10288C0
:1057700042F40062028004E002884FF2FF731A4094
:105780000280704721B1028842F02002028004E0CA
:1057900002884FF6DF731A40028070470146088B7B
:1057A0000012704721B1028842F01002028004E02A
:1057B00002884FF6EF731A400280704721B90288C1
:1057C00042F08002028004E002884FF67F731A40A4
:1057D00002807047B1F5804F05D0828B4BF6FF7386
:1057E0001A40828303E0828B42F4804282837047B6
:1057F00070B502460024002500230020958A138BF3
:105800001B0445EA030626F07F4404EA01068E42A3
:1058100001D1012000E0002070BD10B5014600203C
:10582000002300228B8A0A8B120443EA020424F02C
:105830007F4010BD0CB50246002000230193009369
:1058400000920B0F019321F07F41019B1BB1009B44
:105850001433009303E0090C009B18330093009B62
:105860001B680B400BB1012000E000200CBD0022A2
:1058700021F07F42D3438382704730B50246002037
:105880000023948801F0E06504EA154321F07F418C
:10589000948A0C4054B14BB1012008E00054004000
:1058A00000127A0040420F00A0860100002030BDA7
:1058B000002221F07F42D3438382704710B501213B
:1058C0000807FEF7A2FA00214FF08050FEF79DFA7C
:1058D00010BD2A490862704728490861704701468F
:1058E0000020274A106820F0E0000843106070474D
:1058F0002249A0310860704710B502460020204BB5
:10590000186820F00300104318601E4B1B6843F01A
:1059100004031C4C2360012901D130BF00E020BFEB
:10592000184B1B6823F00403164C236010BD144869
:10593000006840F00400124908600846006840F022
:10594000020008600F48006840F004000D4908603C
:1059500000BF00BF30BF704701460020084A5268B0
:105960000A400AB1012000E000207047044909689C
:1059700041EA8001024A11607047000000000E42B7
:105980000070004010ED00E029B1504A1288024337
:105990004E4B1A8004E04D4A128882434B4B1A80CA
:1059A00070474A48001D008840F010004749091D13
:1059B000088070474548001D00884FF6EF71084089
:1059C0004249091D08807047002140481C30018869
:1059D000001F008841EA0040704700B50246FFF70B
:1059E000E0FF100C394918310880091D0A80FFF7C3
:1059F000E1FF00BD00B50246FFF7D3FFC2F303404D
:105A0000324908310880091D0A80FFF7D3FF00BD25
:105A100000B50246FFF7C5FF100C2C492031088065
:105A2000091D0A80FFF7C6FF00BD0020274910317D
:105A300009880907080B254914310988084370476C
:105A400000BF2248001D008800F020000028F8D088
:105A500070471E48001D00884FF6F77108401B492B
:105A6000091D088000BF1948001D008800F00800CB
:105A70000028F8D0704701460020144A121D1288F1
:105A80000A400AB1012000E0002070470F49091DBB
:105A9000098881430D4A121D11807047014600207C
:105AA0000A4A121D12880A40D0B2084A12880A40D7
:105AB00012B108B1012000E0002070470349091D20
:105AC00009888143014A121D118070470028004057
:105AD00000206F49086048608860C860486288623A
